{
  "contractName": "TokenManager",
  "abi": [
    {
      "inputs": [
        {
          "internalType": "address",
          "name": "",
          "type": "address"
        }
      ],
      "name": "accounts",
      "outputs": [
        {
          "internalType": "uint256",
          "name": "balance",
          "type": "uint256"
        },
        {
          "internalType": "string",
          "name": "policy",
          "type": "string"
        }
      ],
      "stateMutability": "view",
      "type": "function",
      "constant": true
    },
    {
      "inputs": [
        {
          "internalType": "address",
          "name": "account_id",
          "type": "address"
        },
        {
          "internalType": "uint256",
          "name": "token_value",
          "type": "uint256"
        }
      ],
      "name": "deposit",
      "outputs": [],
      "stateMutability": "nonpayable",
      "type": "function"
    },
    {
      "inputs": [
        {
          "internalType": "address",
          "name": "account_id",
          "type": "address"
        },
        {
          "internalType": "uint256",
          "name": "token_value",
          "type": "uint256"
        }
      ],
      "name": "withdraw",
      "outputs": [],
      "stateMutability": "nonpayable",
      "type": "function"
    },
    {
      "inputs": [
        {
          "internalType": "address",
          "name": "account_id",
          "type": "address"
        }
      ],
      "name": "query",
      "outputs": [
        {
          "internalType": "uint256",
          "name": "",
          "type": "uint256"
        }
      ],
      "stateMutability": "view",
      "type": "function",
      "constant": true
    },
    {
      "inputs": [
        {
          "internalType": "address",
          "name": "account_id",
          "type": "address"
        },
        {
          "internalType": "string",
          "name": "str_policy",
          "type": "string"
        }
      ],
      "name": "setPolicy",
      "outputs": [],
      "stateMutability": "nonpayable",
      "type": "function"
    },
    {
      "inputs": [
        {
          "internalType": "address",
          "name": "account_id",
          "type": "address"
        }
      ],
      "name": "getPolicy",
      "outputs": [
        {
          "internalType": "string",
          "name": "",
          "type": "string"
        }
      ],
      "stateMutability": "view",
      "type": "function",
      "constant": true
    }
  ],
  "bytecode": "0x608060405234801561001057600080fd5b50610b99806100206000396000f3fe608060405234801561001057600080fd5b50600436106100625760003560e01c80633791dc6a1461006757806347e7ef24146100975780635e5c06e2146100b3578063d4fc9fc6146100e4578063ec9cd92514610114578063f3fef3a314610130575b600080fd5b610081600480360381019061007c91906105b9565b61014c565b60405161008e919061067f565b60405180910390f35b6100b160048036038101906100ac91906106d7565b610217565b005b6100cd60048036038101906100c891906105b9565b610273565b6040516100db929190610726565b60405180910390f35b6100fe60048036038101906100f991906105b9565b61031f565b60405161010b9190610756565b60405180910390f35b61012e600480360381019061012991906108a6565b61036a565b005b61014a600480360381019061014591906106d7565b6103c4565b005b606060008060008473ffffffffffffffffffffffffffffffffffffffff1673ffffffffffffffffffffffffffffffffffffffff16815260200190815260200160002090508073__PolicyLibrary_________________________6359160e6690916040518263ffffffff1660e01b81526004016101c99190610909565b600060405180830381865af41580156101e6573d6000803e3d6000fd5b505050506040513d6000823e3d601f19601f8201168201806040525081019061020f9190610994565b915050919050565b806000808473ffffffffffffffffffffffffffffffffffffffff1673ffffffffffffffffffffffffffffffffffffffff16815260200190815260200160002060000160008282546102689190610a0c565b925050819055505050565b600060205280600052604060002060009150905080600001549080600101805461029c90610a91565b80601f01602080910402602001604051908101604052809291908181526020018280546102c890610a91565b80156103155780601f106102ea57610100808354040283529160200191610315565b820191906000526020600020905b8154815290600101906020018083116102f857829003601f168201915b5050505050905082565b60008060008373ffffffffffffffffffffffffffffffffffffffff1673ffffffffffffffffffffffffffffffffffffffff168152602001908152602001600020600001549050919050565b806000808473ffffffffffffffffffffffffffffffffffffffff1673ffffffffffffffffffffffffffffffffffffffff16815260200190815260200160002060010190805190602001906103bf9291906104a4565b505050565b806000808473ffffffffffffffffffffffffffffffffffffffff1673ffffffffffffffffffffffffffffffffffffffff168152602001908152602001600020600001541015610448576040517f08c379a000000000000000000000000000000000000000000000000000000000815260040161043f90610b0f565b60405180910390fd5b806000808473ffffffffffffffffffffffffffffffffffffffff1673ffffffffffffffffffffffffffffffffffffffff16815260200190815260200160002060000160008282546104999190610b2f565b925050819055505050565b8280546104b090610a91565b90600052602060002090601f0160209004810192826104d25760008555610519565b82601f106104eb57805160ff1916838001178555610519565b82800160010185558215610519579182015b828111156105185782518255916020019190600101906104fd565b5b509050610526919061052a565b5090565b5b8082111561054357600081600090555060010161052b565b5090565b6000604051905090565b600080fd5b600080fd5b600073ffffffffffffffffffffffffffffffffffffffff82169050919050565b60006105868261055b565b9050919050565b6105968161057b565b81146105a157600080fd5b50565b6000813590506105b38161058d565b92915050565b6000602082840312156105cf576105ce610551565b5b60006105dd848285016105a4565b91505092915050565b600081519050919050565b600082825260208201905092915050565b60005b83811015610620578082015181840152602081019050610605565b8381111561062f576000848401525b50505050565b6000601f19601f8301169050919050565b6000610651826105e6565b61065b81856105f1565b935061066b818560208601610602565b61067481610635565b840191505092915050565b600060208201905081810360008301526106998184610646565b905092915050565b6000819050919050565b6106b4816106a1565b81146106bf57600080fd5b50565b6000813590506106d1816106ab565b92915050565b600080604083850312156106ee576106ed610551565b5b60006106fc858286016105a4565b925050602061070d858286016106c2565b9150509250929050565b610720816106a1565b82525050565b600060408201905061073b6000830185610717565b818103602083015261074d8184610646565b90509392505050565b600060208201905061076b6000830184610717565b92915050565b600080fd5b600080fd5b7f4e487b7100000000000000000000000000000000000000000000000000000000600052604160045260246000fd5b6107b382610635565b810181811067ffffffffffffffff821117156107d2576107d161077b565b5b80604052505050565b60006107e5610547565b90506107f182826107aa565b919050565b600067ffffffffffffffff8211156108115761081061077b565b5b61081a82610635565b9050602081019050919050565b82818337600083830152505050565b6000610849610844846107f6565b6107db565b90508281526020810184848401111561086557610864610776565b5b610870848285610827565b509392505050565b600082601f83011261088d5761088c610771565b5b813561089d848260208601610836565b91505092915050565b600080604083850312156108bd576108bc610551565b5b60006108cb858286016105a4565b925050602083013567ffffffffffffffff8111156108ec576108eb610556565b5b6108f885828601610878565b9150509250929050565b8082525050565b600060208201905061091e6000830184610902565b92915050565b6000610937610932846107f6565b6107db565b90508281526020810184848401111561095357610952610776565b5b61095e848285610602565b509392505050565b600082601f83011261097b5761097a610771565b5b815161098b848260208601610924565b91505092915050565b6000602082840312156109aa576109a9610551565b5b600082015167ffffffffffffffff8111156109c8576109c7610556565b5b6109d484828501610966565b91505092915050565b7f4e487b7100000000000000000000000000000000000000000000000000000000600052601160045260246000fd5b6000610a17826106a1565b9150610a22836106a1565b9250827fffffffffffffffffffffffffffffffffffffffffffffffffffffffffffffffff03821115610a5757610a566109dd565b5b828201905092915050565b7f4e487b7100000000000000000000000000000000000000000000000000000000600052602260045260246000fd5b60006002820490506001821680610aa957607f821691505b60208210811415610abd57610abc610a62565b5b50919050565b7f496e73756666696369656e742062616c616e636520746f207769746864726177600082015250565b6000610af96020836105f1565b9150610b0482610ac3565b602082019050919050565b60006020820190508181036000830152610b2881610aec565b9050919050565b6000610b3a826106a1565b9150610b45836106a1565b925082821015610b5857610b576109dd565b5b82820390509291505056fea2646970667358221220e69693694c8d66c77c729ec75529b9417b942fb5b71cb9548b0184d809ad8a1a64736f6c634300080a0033",
  "immutableReferences": {},
  "source": "// SPDX-License-Identifier: MIT\npragma solidity ^0.8.10;\n\n// Define the library\nlibrary PolicyLibrary {\n    struct Account {\n        uint256 balance;\n        string policy;\n    }\n\n    // Library function to get the policy of an account\n    function getPolicy(Account storage account) external view returns (string memory) {\n        return account.policy;\n    }\n}\n\n// TokenManager contract\ncontract TokenManager {\n    using PolicyLibrary for PolicyLibrary.Account; // Use the library for Account struct\n\n    mapping(address => PolicyLibrary.Account) public accounts;\n\n    // Function to deposit tokens into an account\n    function deposit(address account_id, uint256 token_value) public {\n        accounts[account_id].balance += token_value;\n    }\n\n    // Function to withdraw tokens from an account\n    function withdraw(address account_id, uint256 token_value) public {\n        require(accounts[account_id].balance >= token_value, \"Insufficient balance to withdraw\");\n        accounts[account_id].balance -= token_value;\n    }\n\n    // Function to query the token balance of an account\n    function query(address account_id) public view returns (uint256) {\n        return accounts[account_id].balance;\n    }\n\n    // Function to set the policy of an account\n    function setPolicy(address account_id, string memory str_policy) public {\n        accounts[account_id].policy = str_policy;\n    }\n\n    // Adjusted function to get the policy of an account using the library\n    function getPolicy(address account_id) public view returns (string memory) {\n        PolicyLibrary.Account storage account = accounts[account_id];\n        return account.getPolicy();\n    }\n}\n",
  "sourcePath": "/practical2/TokenManagerProject/contracts/TokenManager.sol",
  "compiler": {
    "name": "solc",
    "version": "0.8.10+commit.fc410830.Emscripten.clang"
  },
  "schemaVersion": "3.4.16",
  "updatedAt": "2024-03-19T04:35:54.952Z",
  "networkType": "ethereum",
  "devdoc": {
    "kind": "dev",
    "methods": {},
    "version": 1
  },
  "userdoc": {
    "kind": "user",
    "methods": {},
    "version": 1
  }
}