{
  "contractName": "DataToken",
  "abi": [
    {
      "anonymous": false,
      "inputs": [
        {
          "indexed": true,
          "internalType": "bytes32",
          "name": "dataHash",
          "type": "bytes32"
        }
      ],
      "name": "TokenBurned",
      "type": "event"
    },
    {
      "anonymous": false,
      "inputs": [
        {
          "indexed": true,
          "internalType": "bytes32",
          "name": "dataHash",
          "type": "bytes32"
        },
        {
          "indexed": true,
          "internalType": "address",
          "name": "owner",
          "type": "address"
        }
      ],
      "name": "TokenRegistered",
      "type": "event"
    },
    {
      "anonymous": false,
      "inputs": [
        {
          "indexed": true,
          "internalType": "bytes32",
          "name": "dataHash",
          "type": "bytes32"
        },
        {
          "indexed": true,
          "internalType": "address",
          "name": "from",
          "type": "address"
        },
        {
          "indexed": true,
          "internalType": "address",
          "name": "to",
          "type": "address"
        }
      ],
      "name": "TokenTransferred",
      "type": "event"
    },
    {
      "inputs": [
        {
          "internalType": "bytes32",
          "name": "",
          "type": "bytes32"
        }
      ],
      "name": "dataTokens",
      "outputs": [
        {
          "internalType": "address",
          "name": "owner",
          "type": "address"
        },
        {
          "internalType": "string",
          "name": "filename",
          "type": "string"
        },
        {
          "internalType": "string",
          "name": "fileCID",
          "type": "string"
        },
        {
          "internalType": "uint256",
          "name": "size",
          "type": "uint256"
        }
      ],
      "stateMutability": "view",
      "type": "function",
      "constant": true
    },
    {
      "inputs": [
        {
          "internalType": "bytes32",
          "name": "",
          "type": "bytes32"
        },
        {
          "internalType": "uint256",
          "name": "",
          "type": "uint256"
        }
      ],
      "name": "dataTransferLog",
      "outputs": [
        {
          "internalType": "address",
          "name": "",
          "type": "address"
        }
      ],
      "stateMutability": "view",
      "type": "function",
      "constant": true
    },
    {
      "inputs": [
        {
          "internalType": "bytes32",
          "name": "dataHash",
          "type": "bytes32"
        },
        {
          "internalType": "string",
          "name": "filename",
          "type": "string"
        },
        {
          "internalType": "string",
          "name": "fileCID",
          "type": "string"
        },
        {
          "internalType": "uint256",
          "name": "size",
          "type": "uint256"
        }
      ],
      "name": "register",
      "outputs": [],
      "stateMutability": "nonpayable",
      "type": "function"
    },
    {
      "inputs": [
        {
          "internalType": "bytes32",
          "name": "dataHash",
          "type": "bytes32"
        }
      ],
      "name": "query",
      "outputs": [
        {
          "components": [
            {
              "internalType": "address",
              "name": "owner",
              "type": "address"
            },
            {
              "internalType": "string",
              "name": "filename",
              "type": "string"
            },
            {
              "internalType": "string",
              "name": "fileCID",
              "type": "string"
            },
            {
              "internalType": "uint256",
              "name": "size",
              "type": "uint256"
            }
          ],
          "internalType": "struct DataToken.Data",
          "name": "",
          "type": "tuple"
        }
      ],
      "stateMutability": "view",
      "type": "function",
      "constant": true
    },
    {
      "inputs": [
        {
          "internalType": "bytes32",
          "name": "dataHash",
          "type": "bytes32"
        },
        {
          "internalType": "address",
          "name": "to",
          "type": "address"
        }
      ],
      "name": "transferData",
      "outputs": [],
      "stateMutability": "nonpayable",
      "type": "function"
    },
    {
      "inputs": [
        {
          "internalType": "bytes32",
          "name": "dataHash",
          "type": "bytes32"
        }
      ],
      "name": "queryTracker",
      "outputs": [
        {
          "internalType": "address[]",
          "name": "",
          "type": "address[]"
        }
      ],
      "stateMutability": "view",
      "type": "function",
      "constant": true
    },
    {
      "inputs": [
        {
          "internalType": "bytes32",
          "name": "dataHash",
          "type": "bytes32"
        }
      ],
      "name": "burn",
      "outputs": [],
      "stateMutability": "nonpayable",
      "type": "function"
    }
  ],
  "bytecode": "0x608060405234801561001057600080fd5b5061159a806100206000396000f3fe608060405234801561001057600080fd5b506004361061007d5760003560e01c8063a3b61a9c1161005b578063a3b61a9c14610101578063aac89c7c14610131578063b6e24aa114610161578063f3c6f6e11461017d5761007d565b806308a1eee1146100825780633106b9a11461009e578063a16bc1a8146100d1575b600080fd5b61009c60048036038101906100979190610ce2565b610199565b005b6100b860048036038101906100b39190610ce2565b6102d0565b6040516100c89493929190610e02565b60405180910390f35b6100eb60048036038101906100e69190610e81565b610430565b6040516100f89190610ec1565b60405180910390f35b61011b60048036038101906101169190610ce2565b61047e565b6040516101289190610fae565b60405180910390f35b61014b60048036038101906101469190610ce2565b61062e565b604051610158919061107f565b60405180910390f35b61017b600480360381019061017691906111d6565b6106cf565b005b610197600480360381019061019291906112a1565b610894565b005b3373ffffffffffffffffffffffffffffffffffffffff1660008083815260200190815260200160002060000160009054906101000a900473ffffffffffffffffffffffffffffffffffffffff1673ffffffffffffffffffffffffffffffffffffffff161461023c576040517f08c379a000000000000000000000000000000000000000000000000000000000815260040161023390611353565b60405180910390fd5b600080828152602001908152602001600020600080820160006101000a81549073ffffffffffffffffffffffffffffffffffffffff02191690556001820160006102869190610b77565b6002820160006102969190610b77565b60038201600090555050807f12dc057bcbf331ea18bbd11441bd735e673e874c9f47b8d5f073eb7f28b547e860405160405180910390a250565b60006020528060005260406000206000915090508060000160009054906101000a900473ffffffffffffffffffffffffffffffffffffffff1690806001018054610319906113a2565b80601f0160208091040260200160405190810160405280929190818152602001828054610345906113a2565b80156103925780601f1061036757610100808354040283529160200191610392565b820191906000526020600020905b81548152906001019060200180831161037557829003601f168201915b5050505050908060020180546103a7906113a2565b80601f01602080910402602001604051908101604052809291908181526020018280546103d3906113a2565b80156104205780601f106103f557610100808354040283529160200191610420565b820191906000526020600020905b81548152906001019060200180831161040357829003601f168201915b5050505050908060030154905084565b6001602052816000526040600020818154811061044c57600080fd5b906000526020600020016000915091509054906101000a900473ffffffffffffffffffffffffffffffffffffffff1681565b610486610bb7565b6000808381526020019081526020016000206040518060800160405290816000820160009054906101000a900473ffffffffffffffffffffffffffffffffffffffff1673ffffffffffffffffffffffffffffffffffffffff1673ffffffffffffffffffffffffffffffffffffffff168152602001600182018054610509906113a2565b80601f0160208091040260200160405190810160405280929190818152602001828054610535906113a2565b80156105825780601f1061055757610100808354040283529160200191610582565b820191906000526020600020905b81548152906001019060200180831161056557829003601f168201915b5050505050815260200160028201805461059b906113a2565b80601f01602080910402602001604051908101604052809291908181526020018280546105c7906113a2565b80156106145780601f106105e957610100808354040283529160200191610614565b820191906000526020600020905b8154815290600101906020018083116105f757829003601f168201915b505050505081526020016003820154815250509050919050565b6060600160008381526020019081526020016000208054806020026020016040519081016040528092919081815260200182805480156106c357602002820191906000526020600020905b8160009054906101000a900473ffffffffffffffffffffffffffffffffffffffff1673ffffffffffffffffffffffffffffffffffffffff1681526020019060010190808311610679575b50505050509050919050565b600073ffffffffffffffffffffffffffffffffffffffff1660008086815260200190815260200160002060000160009054906101000a900473ffffffffffffffffffffffffffffffffffffffff1673ffffffffffffffffffffffffffffffffffffffff1614610773576040517f08c379a000000000000000000000000000000000000000000000000000000000815260040161076a90611420565b60405180910390fd5b60405180608001604052803373ffffffffffffffffffffffffffffffffffffffff1681526020018481526020018381526020018281525060008086815260200190815260200160002060008201518160000160006101000a81548173ffffffffffffffffffffffffffffffffffffffff021916908373ffffffffffffffffffffffffffffffffffffffff160217905550602082015181600101908051906020019061081f929190610bf5565b50604082015181600201908051906020019061083c929190610bf5565b50606082015181600301559050503373ffffffffffffffffffffffffffffffffffffffff16847f5480718cbffecdb87b0dda598e1ec366b45a645327b3d98494a91e9594981f0460405160405180910390a350505050565b3373ffffffffffffffffffffffffffffffffffffffff1660008084815260200190815260200160002060000160009054906101000a900473ffffffffffffffffffffffffffffffffffffffff1673ffffffffffffffffffffffffffffffffffffffff1614610937576040517f08c379a000000000000000000000000000000000000000000000000000000000815260040161092e906114b2565b60405180910390fd5b600073ffffffffffffffffffffffffffffffffffffffff168173ffffffffffffffffffffffffffffffffffffffff1614156109a7576040517f08c379a000000000000000000000000000000000000000000000000000000000815260040161099e90611544565b60405180910390fd5b6001600083815260200190815260200160002060008084815260200190815260200160002060000160009054906101000a900473ffffffffffffffffffffffffffffffffffffffff169080600181540180825580915050600190039060005260206000200160009091909190916101000a81548173ffffffffffffffffffffffffffffffffffffffff021916908373ffffffffffffffffffffffffffffffffffffffff16021790555060016000838152602001908152602001600020819080600181540180825580915050600190039060005260206000200160009091909190916101000a81548173ffffffffffffffffffffffffffffffffffffffff021916908373ffffffffffffffffffffffffffffffffffffffff1602179055508060008084815260200190815260200160002060000160006101000a81548173ffffffffffffffffffffffffffffffffffffffff021916908373ffffffffffffffffffffffffffffffffffffffff1602179055508073ffffffffffffffffffffffffffffffffffffffff163373ffffffffffffffffffffffffffffffffffffffff16837f810bc9daa07eabbdc6cfb76ad90b6f5ba0b7053f76bd0b5f48e22654ef8d42bd60405160405180910390a45050565b508054610b83906113a2565b6000825580601f10610b955750610bb4565b601f016020900490600052602060002090810190610bb39190610c7b565b5b50565b6040518060800160405280600073ffffffffffffffffffffffffffffffffffffffff1681526020016060815260200160608152602001600081525090565b828054610c01906113a2565b90600052602060002090601f016020900481019282610c235760008555610c6a565b82601f10610c3c57805160ff1916838001178555610c6a565b82800160010185558215610c6a579182015b82811115610c69578251825591602001919060010190610c4e565b5b509050610c779190610c7b565b5090565b5b80821115610c94576000816000905550600101610c7c565b5090565b6000604051905090565b600080fd5b600080fd5b6000819050919050565b610cbf81610cac565b8114610cca57600080fd5b50565b600081359050610cdc81610cb6565b92915050565b600060208284031215610cf857610cf7610ca2565b5b6000610d0684828501610ccd565b91505092915050565b600073ffffffffffffffffffffffffffffffffffffffff82169050919050565b6000610d3a82610d0f565b9050919050565b610d4a81610d2f565b82525050565b600081519050919050565b600082825260208201905092915050565b60005b83811015610d8a578082015181840152602081019050610d6f565b83811115610d99576000848401525b50505050565b6000601f19601f8301169050919050565b6000610dbb82610d50565b610dc58185610d5b565b9350610dd5818560208601610d6c565b610dde81610d9f565b840191505092915050565b6000819050919050565b610dfc81610de9565b82525050565b6000608082019050610e176000830187610d41565b8181036020830152610e298186610db0565b90508181036040830152610e3d8185610db0565b9050610e4c6060830184610df3565b95945050505050565b610e5e81610de9565b8114610e6957600080fd5b50565b600081359050610e7b81610e55565b92915050565b60008060408385031215610e9857610e97610ca2565b5b6000610ea685828601610ccd565b9250506020610eb785828601610e6c565b9150509250929050565b6000602082019050610ed66000830184610d41565b92915050565b610ee581610d2f565b82525050565b600082825260208201905092915050565b6000610f0782610d50565b610f118185610eeb565b9350610f21818560208601610d6c565b610f2a81610d9f565b840191505092915050565b610f3e81610de9565b82525050565b6000608083016000830151610f5c6000860182610edc565b5060208301518482036020860152610f748282610efc565b91505060408301518482036040860152610f8e8282610efc565b9150506060830151610fa36060860182610f35565b508091505092915050565b60006020820190508181036000830152610fc88184610f44565b905092915050565b600081519050919050565b600082825260208201905092915050565b6000819050602082019050919050565b60006110088383610edc565b60208301905092915050565b6000602082019050919050565b600061102c82610fd0565b6110368185610fdb565b935061104183610fec565b8060005b838110156110725781516110598882610ffc565b975061106483611014565b925050600181019050611045565b5085935050505092915050565b600060208201905081810360008301526110998184611021565b905092915050565b600080fd5b600080fd5b7f4e487b7100000000000000000000000000000000000000000000000000000000600052604160045260246000fd5b6110e382610d9f565b810181811067ffffffffffffffff82111715611102576111016110ab565b5b80604052505050565b6000611115610c98565b905061112182826110da565b919050565b600067ffffffffffffffff821115611141576111406110ab565b5b61114a82610d9f565b9050602081019050919050565b82818337600083830152505050565b600061117961117484611126565b61110b565b905082815260208101848484011115611195576111946110a6565b5b6111a0848285611157565b509392505050565b600082601f8301126111bd576111bc6110a1565b5b81356111cd848260208601611166565b91505092915050565b600080600080608085870312156111f0576111ef610ca2565b5b60006111fe87828801610ccd565b945050602085013567ffffffffffffffff81111561121f5761121e610ca7565b5b61122b878288016111a8565b935050604085013567ffffffffffffffff81111561124c5761124b610ca7565b5b611258878288016111a8565b925050606061126987828801610e6c565b91505092959194509250565b61127e81610d2f565b811461128957600080fd5b50565b60008135905061129b81611275565b92915050565b600080604083850312156112b8576112b7610ca2565b5b60006112c685828601610ccd565b92505060206112d78582860161128c565b9150509250929050565b7f4f6e6c7920746865206f776e65722063616e206275726e2074686520746f6b6560008201527f6e2e000000000000000000000000000000000000000000000000000000000000602082015250565b600061133d602283610d5b565b9150611348826112e1565b604082019050919050565b6000602082019050818103600083015261136c81611330565b9050919050565b7f4e487b7100000000000000000000000000000000000000000000000000000000600052602260045260246000fd5b600060028204905060018216806113ba57607f821691505b602082108114156113ce576113cd611373565b5b50919050565b7f546f6b656e20616c726561647920726567697374657265642e00000000000000600082015250565b600061140a601983610d5b565b9150611415826113d4565b602082019050919050565b60006020820190508181036000830152611439816113fd565b9050919050565b7f4f6e6c7920746865206f776e65722063616e207472616e73666572207468652060008201527f746f6b656e2e0000000000000000000000000000000000000000000000000000602082015250565b600061149c602683610d5b565b91506114a782611440565b604082019050919050565b600060208201905081810360008301526114cb8161148f565b9050919050565b7f43616e6e6f74207472616e7366657220746f20746865207a65726f206164647260008201527f6573732e00000000000000000000000000000000000000000000000000000000602082015250565b600061152e602483610d5b565b9150611539826114d2565b604082019050919050565b6000602082019050818103600083015261155d81611521565b905091905056fea264697066735822122098ee8fb5b415f46ff8e8ac4abf83734d14b42fcdcb31036fb8d517386468652164736f6c634300080a0033",
  "immutableReferences": {},
  "source": "// SPDX-License-Identifier: MIT\npragma solidity ^0.8.0;\n\ncontract DataToken {\n\n    struct Data {\n        address owner;\n        string filename;\n        string fileCID;\n        uint256 size;\n    }\n\n    mapping(bytes32 => Data) public dataTokens;\n    mapping(bytes32 => address[]) public dataTransferLog;\n\n    event TokenRegistered(bytes32 indexed dataHash, address indexed owner);\n    event TokenTransferred(bytes32 indexed dataHash, address indexed from, address indexed to);\n    event TokenBurned(bytes32 indexed dataHash);\n\n    function register(bytes32 dataHash, string memory filename, string memory fileCID, uint256 size) external {\n        require(dataTokens[dataHash].owner == address(0), \"Token already registered.\");\n        \n        dataTokens[dataHash] = Data(msg.sender, filename, fileCID, size);\n        \n        emit TokenRegistered(dataHash, msg.sender);\n    }\n\n    function query(bytes32 dataHash) external view returns (Data memory) {\n        return dataTokens[dataHash];\n    }\n\n    function transferData(bytes32 dataHash, address to) external {\n        require(dataTokens[dataHash].owner == msg.sender, \"Only the owner can transfer the token.\");\n        require(to != address(0), \"Cannot transfer to the zero address.\");\n        \n        dataTransferLog[dataHash].push(dataTokens[dataHash].owner);\n        dataTransferLog[dataHash].push(to);\n        \n        dataTokens[dataHash].owner = to;\n        \n        emit TokenTransferred(dataHash, msg.sender, to);\n    }\n\n    function queryTracker(bytes32 dataHash) external view returns (address[] memory) {\n        return dataTransferLog[dataHash];\n    }\n\n    function burn(bytes32 dataHash) external {\n        require(dataTokens[dataHash].owner == msg.sender, \"Only the owner can burn the token.\");\n        \n        delete dataTokens[dataHash];\n        \n        emit TokenBurned(dataHash);\n    }\n}\n",
  "sourcePath": "/GitHub/Blockchain-Projects/SmartContractDataSharing/contracts/DataToken.sol",
  "compiler": {
    "name": "solc",
    "version": "0.8.10+commit.fc410830.Emscripten.clang"
  },
  "schemaVersion": "3.4.16",
  "updatedAt": "2024-04-13T15:40:11.773Z",
  "networkType": "ethereum",
  "devdoc": {
    "kind": "dev",
    "methods": {},
    "version": 1
  },
  "userdoc": {
    "kind": "user",
    "methods": {},
    "version": 1
  }
}