{
  "contractName": "DataToken",
  "abi": [
    {
      "anonymous": false,
      "inputs": [
        {
          "indexed": true,
          "internalType": "bytes32",
          "name": "dataHash",
          "type": "bytes32"
        }
      ],
      "name": "TokenBurned",
      "type": "event"
    },
    {
      "anonymous": false,
      "inputs": [
        {
          "indexed": true,
          "internalType": "bytes32",
          "name": "dataHash",
          "type": "bytes32"
        },
        {
          "indexed": true,
          "internalType": "address",
          "name": "owner",
          "type": "address"
        }
      ],
      "name": "TokenRegistered",
      "type": "event"
    },
    {
      "anonymous": false,
      "inputs": [
        {
          "indexed": true,
          "internalType": "bytes32",
          "name": "dataHash",
          "type": "bytes32"
        },
        {
          "indexed": true,
          "internalType": "address",
          "name": "from",
          "type": "address"
        },
        {
          "indexed": true,
          "internalType": "address",
          "name": "to",
          "type": "address"
        }
      ],
      "name": "TokenTransferred",
      "type": "event"
    },
    {
      "inputs": [
        {
          "internalType": "bytes32",
          "name": "",
          "type": "bytes32"
        }
      ],
      "name": "dataTokens",
      "outputs": [
        {
          "internalType": "address",
          "name": "owner",
          "type": "address"
        },
        {
          "internalType": "string",
          "name": "filename",
          "type": "string"
        },
        {
          "internalType": "string",
          "name": "fileCID",
          "type": "string"
        },
        {
          "internalType": "uint256",
          "name": "size",
          "type": "uint256"
        }
      ],
      "stateMutability": "view",
      "type": "function"
    },
    {
      "inputs": [
        {
          "internalType": "bytes32",
          "name": "",
          "type": "bytes32"
        },
        {
          "internalType": "uint256",
          "name": "",
          "type": "uint256"
        }
      ],
      "name": "dataTransferLog",
      "outputs": [
        {
          "internalType": "address",
          "name": "",
          "type": "address"
        }
      ],
      "stateMutability": "view",
      "type": "function"
    },
    {
      "inputs": [
        {
          "internalType": "bytes32",
          "name": "dataHash",
          "type": "bytes32"
        },
        {
          "internalType": "string",
          "name": "filename",
          "type": "string"
        },
        {
          "internalType": "string",
          "name": "fileCID",
          "type": "string"
        },
        {
          "internalType": "uint256",
          "name": "size",
          "type": "uint256"
        }
      ],
      "name": "register",
      "outputs": [],
      "stateMutability": "nonpayable",
      "type": "function"
    },
    {
      "inputs": [
        {
          "internalType": "bytes32",
          "name": "dataHash",
          "type": "bytes32"
        }
      ],
      "name": "query",
      "outputs": [
        {
          "components": [
            {
              "internalType": "address",
              "name": "owner",
              "type": "address"
            },
            {
              "internalType": "string",
              "name": "filename",
              "type": "string"
            },
            {
              "internalType": "string",
              "name": "fileCID",
              "type": "string"
            },
            {
              "internalType": "uint256",
              "name": "size",
              "type": "uint256"
            }
          ],
          "internalType": "struct DataToken.Data",
          "name": "",
          "type": "tuple"
        }
      ],
      "stateMutability": "view",
      "type": "function"
    },
    {
      "inputs": [
        {
          "internalType": "bytes32",
          "name": "dataHash",
          "type": "bytes32"
        },
        {
          "internalType": "address",
          "name": "to",
          "type": "address"
        }
      ],
      "name": "transferData",
      "outputs": [],
      "stateMutability": "nonpayable",
      "type": "function"
    },
    {
      "inputs": [
        {
          "internalType": "bytes32",
          "name": "dataHash",
          "type": "bytes32"
        }
      ],
      "name": "queryTracker",
      "outputs": [
        {
          "internalType": "address[]",
          "name": "",
          "type": "address[]"
        }
      ],
      "stateMutability": "view",
      "type": "function"
    },
    {
      "inputs": [
        {
          "internalType": "bytes32",
          "name": "dataHash",
          "type": "bytes32"
        }
      ],
      "name": "burn",
      "outputs": [],
      "stateMutability": "nonpayable",
      "type": "function"
    }
  ],
  "bytecode": "0x608060405234801561001057600080fd5b50611552806100206000396000f3fe608060405234801561001057600080fd5b506004361061007d5760003560e01c8063a3b61a9c1161005b578063a3b61a9c14610101578063aac89c7c14610131578063b6e24aa114610161578063f3c6f6e11461017d5761007d565b806308a1eee1146100825780633106b9a11461009e578063a16bc1a8146100d1575b600080fd5b61009c60048036038101906100979190610d62565b610199565b005b6100b860048036038101906100b39190610d62565b6102d0565b6040516100c89493929190610e82565b60405180910390f35b6100eb60048036038101906100e69190610f01565b610430565b6040516100f89190610f41565b60405180910390f35b61011b60048036038101906101169190610d62565b61047e565b604051610128919061102e565b60405180910390f35b61014b60048036038101906101469190610d62565b61062e565b60405161015891906110ff565b60405180910390f35b61017b60048036038101906101769190611186565b6106cf565b005b61019760048036038101906101929190611259565b61091e565b005b3373ffffffffffffffffffffffffffffffffffffffff1660008083815260200190815260200160002060000160009054906101000a900473ffffffffffffffffffffffffffffffffffffffff1673ffffffffffffffffffffffffffffffffffffffff161461023c576040517f08c379a00000000000000000000000000000000000000000000000000000000081526004016102339061130b565b60405180910390fd5b600080828152602001908152602001600020600080820160006101000a81549073ffffffffffffffffffffffffffffffffffffffff02191690556001820160006102869190610c01565b6002820160006102969190610c01565b60038201600090555050807f12dc057bcbf331ea18bbd11441bd735e673e874c9f47b8d5f073eb7f28b547e860405160405180910390a250565b60006020528060005260406000206000915090508060000160009054906101000a900473ffffffffffffffffffffffffffffffffffffffff16908060010180546103199061135a565b80601f01602080910402602001604051908101604052809291908181526020018280546103459061135a565b80156103925780601f1061036757610100808354040283529160200191610392565b820191906000526020600020905b81548152906001019060200180831161037557829003601f168201915b5050505050908060020180546103a79061135a565b80601f01602080910402602001604051908101604052809291908181526020018280546103d39061135a565b80156104205780601f106103f557610100808354040283529160200191610420565b820191906000526020600020905b81548152906001019060200180831161040357829003601f168201915b5050505050908060030154905084565b6001602052816000526040600020818154811061044c57600080fd5b906000526020600020016000915091509054906101000a900473ffffffffffffffffffffffffffffffffffffffff1681565b610486610c41565b6000808381526020019081526020016000206040518060800160405290816000820160009054906101000a900473ffffffffffffffffffffffffffffffffffffffff1673ffffffffffffffffffffffffffffffffffffffff1673ffffffffffffffffffffffffffffffffffffffff1681526020016001820180546105099061135a565b80601f01602080910402602001604051908101604052809291908181526020018280546105359061135a565b80156105825780601f1061055757610100808354040283529160200191610582565b820191906000526020600020905b81548152906001019060200180831161056557829003601f168201915b5050505050815260200160028201805461059b9061135a565b80601f01602080910402602001604051908101604052809291908181526020018280546105c79061135a565b80156106145780601f106105e957610100808354040283529160200191610614565b820191906000526020600020905b8154815290600101906020018083116105f757829003601f168201915b505050505081526020016003820154815250509050919050565b6060600160008381526020019081526020016000208054806020026020016040519081016040528092919081815260200182805480156106c357602002820191906000526020600020905b8160009054906101000a900473ffffffffffffffffffffffffffffffffffffffff1673ffffffffffffffffffffffffffffffffffffffff1681526020019060010190808311610679575b50505050509050919050565b600073ffffffffffffffffffffffffffffffffffffffff1660008088815260200190815260200160002060000160009054906101000a900473ffffffffffffffffffffffffffffffffffffffff1673ffffffffffffffffffffffffffffffffffffffff1614610773576040517f08c379a000000000000000000000000000000000000000000000000000000000815260040161076a906113d8565b60405180910390fd5b60405180608001604052803373ffffffffffffffffffffffffffffffffffffffff16815260200186868080601f016020809104026020016040519081016040528093929190818152602001838380828437600081840152601f19601f82011690508083019250505050505050815260200184848080601f016020809104026020016040519081016040528093929190818152602001838380828437600081840152601f19601f8201169050808301925050505050505081526020018281525060008088815260200190815260200160002060008201518160000160006101000a81548173ffffffffffffffffffffffffffffffffffffffff021916908373ffffffffffffffffffffffffffffffffffffffff16021790555060208201518160010190805190602001906108a7929190610c7f565b5060408201518160020190805190602001906108c4929190610c7f565b50606082015181600301559050503373ffffffffffffffffffffffffffffffffffffffff16867f5480718cbffecdb87b0dda598e1ec366b45a645327b3d98494a91e9594981f0460405160405180910390a3505050505050565b3373ffffffffffffffffffffffffffffffffffffffff1660008084815260200190815260200160002060000160009054906101000a900473ffffffffffffffffffffffffffffffffffffffff1673ffffffffffffffffffffffffffffffffffffffff16146109c1576040517f08c379a00000000000000000000000000000000000000000000000000000000081526004016109b89061146a565b60405180910390fd5b600073ffffffffffffffffffffffffffffffffffffffff168173ffffffffffffffffffffffffffffffffffffffff161415610a31576040517f08c379a0000000000000000000000000000000000000000000000000000000008152600401610a28906114fc565b60405180910390fd5b6001600083815260200190815260200160002060008084815260200190815260200160002060000160009054906101000a900473ffffffffffffffffffffffffffffffffffffffff169080600181540180825580915050600190039060005260206000200160009091909190916101000a81548173ffffffffffffffffffffffffffffffffffffffff021916908373ffffffffffffffffffffffffffffffffffffffff16021790555060016000838152602001908152602001600020819080600181540180825580915050600190039060005260206000200160009091909190916101000a81548173ffffffffffffffffffffffffffffffffffffffff021916908373ffffffffffffffffffffffffffffffffffffffff1602179055508060008084815260200190815260200160002060000160006101000a81548173ffffffffffffffffffffffffffffffffffffffff021916908373ffffffffffffffffffffffffffffffffffffffff1602179055508073ffffffffffffffffffffffffffffffffffffffff163373ffffffffffffffffffffffffffffffffffffffff16837f810bc9daa07eabbdc6cfb76ad90b6f5ba0b7053f76bd0b5f48e22654ef8d42bd60405160405180910390a45050565b508054610c0d9061135a565b6000825580601f10610c1f5750610c3e565b601f016020900490600052602060002090810190610c3d9190610d05565b5b50565b6040518060800160405280600073ffffffffffffffffffffffffffffffffffffffff1681526020016060815260200160608152602001600081525090565b828054610c8b9061135a565b90600052602060002090601f016020900481019282610cad5760008555610cf4565b82601f10610cc657805160ff1916838001178555610cf4565b82800160010185558215610cf4579182015b82811115610cf3578251825591602001919060010190610cd8565b5b509050610d019190610d05565b5090565b5b80821115610d1e576000816000905550600101610d06565b5090565b600080fd5b600080fd5b6000819050919050565b610d3f81610d2c565b8114610d4a57600080fd5b50565b600081359050610d5c81610d36565b92915050565b600060208284031215610d7857610d77610d22565b5b6000610d8684828501610d4d565b91505092915050565b600073ffffffffffffffffffffffffffffffffffffffff82169050919050565b6000610dba82610d8f565b9050919050565b610dca81610daf565b82525050565b600081519050919050565b600082825260208201905092915050565b60005b83811015610e0a578082015181840152602081019050610def565b83811115610e19576000848401525b50505050565b6000601f19601f8301169050919050565b6000610e3b82610dd0565b610e458185610ddb565b9350610e55818560208601610dec565b610e5e81610e1f565b840191505092915050565b6000819050919050565b610e7c81610e69565b82525050565b6000608082019050610e976000830187610dc1565b8181036020830152610ea98186610e30565b90508181036040830152610ebd8185610e30565b9050610ecc6060830184610e73565b95945050505050565b610ede81610e69565b8114610ee957600080fd5b50565b600081359050610efb81610ed5565b92915050565b60008060408385031215610f1857610f17610d22565b5b6000610f2685828601610d4d565b9250506020610f3785828601610eec565b9150509250929050565b6000602082019050610f566000830184610dc1565b92915050565b610f6581610daf565b82525050565b600082825260208201905092915050565b6000610f8782610dd0565b610f918185610f6b565b9350610fa1818560208601610dec565b610faa81610e1f565b840191505092915050565b610fbe81610e69565b82525050565b6000608083016000830151610fdc6000860182610f5c565b5060208301518482036020860152610ff48282610f7c565b9150506040830151848203604086015261100e8282610f7c565b91505060608301516110236060860182610fb5565b508091505092915050565b600060208201905081810360008301526110488184610fc4565b905092915050565b600081519050919050565b600082825260208201905092915050565b6000819050602082019050919050565b60006110888383610f5c565b60208301905092915050565b6000602082019050919050565b60006110ac82611050565b6110b6818561105b565b93506110c18361106c565b8060005b838110156110f25781516110d9888261107c565b97506110e483611094565b9250506001810190506110c5565b5085935050505092915050565b6000602082019050818103600083015261111981846110a1565b905092915050565b600080fd5b600080fd5b600080fd5b60008083601f84011261114657611145611121565b5b8235905067ffffffffffffffff81111561116357611162611126565b5b60208301915083600182028301111561117f5761117e61112b565b5b9250929050565b600080600080600080608087890312156111a3576111a2610d22565b5b60006111b189828a01610d4d565b965050602087013567ffffffffffffffff8111156111d2576111d1610d27565b5b6111de89828a01611130565b9550955050604087013567ffffffffffffffff81111561120157611200610d27565b5b61120d89828a01611130565b9350935050606061122089828a01610eec565b9150509295509295509295565b61123681610daf565b811461124157600080fd5b50565b6000813590506112538161122d565b92915050565b600080604083850312156112705761126f610d22565b5b600061127e85828601610d4d565b925050602061128f85828601611244565b9150509250929050565b7f4f6e6c7920746865206f776e65722063616e206275726e2074686520746f6b6560008201527f6e2e000000000000000000000000000000000000000000000000000000000000602082015250565b60006112f5602283610ddb565b915061130082611299565b604082019050919050565b60006020820190508181036000830152611324816112e8565b9050919050565b7f4e487b7100000000000000000000000000000000000000000000000000000000600052602260045260246000fd5b6000600282049050600182168061137257607f821691505b602082108114156113865761138561132b565b5b50919050565b7f546f6b656e20616c726561647920726567697374657265642e00000000000000600082015250565b60006113c2601983610ddb565b91506113cd8261138c565b602082019050919050565b600060208201905081810360008301526113f1816113b5565b9050919050565b7f4f6e6c7920746865206f776e65722063616e207472616e73666572207468652060008201527f746f6b656e2e0000000000000000000000000000000000000000000000000000602082015250565b6000611454602683610ddb565b915061145f826113f8565b604082019050919050565b6000602082019050818103600083015261148381611447565b9050919050565b7f43616e6e6f74207472616e7366657220746f20746865207a65726f206164647260008201527f6573732e00000000000000000000000000000000000000000000000000000000602082015250565b60006114e6602483610ddb565b91506114f18261148a565b604082019050919050565b60006020820190508181036000830152611515816114d9565b905091905056fea2646970667358221220677a274f623dbe1bfce769c5a2ea748011e0c1d0b1ff5e447ce3bd9cbe4b6ecc64736f6c634300080a0033",
  "immutableReferences": {},
  "source": "// SPDX-License-Identifier: MIT\npragma solidity ^0.8.0;\n\ncontract DataToken {\n\n    struct Data {\n        address owner;\n        string filename;\n        string fileCID;\n        uint256 size;\n    }\n\n    mapping(bytes32 => Data) public dataTokens;\n    mapping(bytes32 => address[]) public dataTransferLog;\n\n    event TokenRegistered(bytes32 indexed dataHash, address indexed owner);\n    event TokenTransferred(bytes32 indexed dataHash, address indexed from, address indexed to);\n    event TokenBurned(bytes32 indexed dataHash);\n\n    function register(bytes32 dataHash, string calldata filename, string calldata fileCID, uint256 size) external {\n        require(dataTokens[dataHash].owner == address(0), \"Token already registered.\");\n        \n        dataTokens[dataHash] = Data(msg.sender, filename, fileCID, size);\n        \n        emit TokenRegistered(dataHash, msg.sender);\n    }\n\n    function query(bytes32 dataHash) external view returns (Data memory) {\n        return dataTokens[dataHash];\n    }\n\n    function transferData(bytes32 dataHash, address to) external {\n        require(dataTokens[dataHash].owner == msg.sender, \"Only the owner can transfer the token.\");\n        require(to != address(0), \"Cannot transfer to the zero address.\");\n        \n        dataTransferLog[dataHash].push(dataTokens[dataHash].owner);\n        dataTransferLog[dataHash].push(to);\n        \n        dataTokens[dataHash].owner = to;\n        \n        emit TokenTransferred(dataHash, msg.sender, to);\n    }\n\n    function queryTracker(bytes32 dataHash) external view returns (address[] memory) {\n        return dataTransferLog[dataHash];\n    }\n\n    function burn(bytes32 dataHash) external {\n        require(dataTokens[dataHash].owner == msg.sender, \"Only the owner can burn the token.\");\n        \n        delete dataTokens[dataHash];\n        \n        emit TokenBurned(dataHash);\n    }\n}\n",
  "sourcePath": "/GitHub/Blockchain-Projects/SmartContractDataSharing/contracts/DataToken.sol",
  "compiler": {
    "name": "solc",
    "version": "0.8.10+commit.fc410830.Emscripten.clang"
  },
  "schemaVersion": "3.4.16",
  "updatedAt": "2024-04-12T22:56:01.241Z",
  "devdoc": {
    "kind": "dev",
    "methods": {},
    "version": 1
  },
  "userdoc": {
    "kind": "user",
    "methods": {},
    "version": 1
  }
}